{
  "_format": "hh-sol-artifact-1",
  "contractName": "LogIntegrity",
  "sourceName": "contracts/LogIntegrity.sol",
  "abi": [
    {
      "anonymous": false,
      "inputs": [
        {
          "indexed": false,
          "internalType": "string",
          "name": "logId",
          "type": "string"
        },
        {
          "indexed": false,
          "internalType": "string",
          "name": "hash",
          "type": "string"
        },
        {
          "indexed": false,
          "internalType": "uint256",
          "name": "timestamp",
          "type": "uint256"
        }
      ],
      "name": "LogStored",
      "type": "event"
    },
    {
      "inputs": [
        {
          "internalType": "string",
          "name": "logId",
          "type": "string"
        }
      ],
      "name": "getLog",
      "outputs": [
        {
          "internalType": "string",
          "name": "",
          "type": "string"
        },
        {
          "internalType": "uint256",
          "name": "",
          "type": "uint256"
        }
      ],
      "stateMutability": "view",
      "type": "function"
    },
    {
      "inputs": [
        {
          "internalType": "string",
          "name": "logId",
          "type": "string"
        },
        {
          "internalType": "string",
          "name": "hash",
          "type": "string"
        }
      ],
      "name": "storeLog",
      "outputs": [],
      "stateMutability": "nonpayable",
      "type": "function"
    },
    {
      "inputs": [
        {
          "internalType": "string",
          "name": "logId",
          "type": "string"
        },
        {
          "internalType": "string",
          "name": "hash",
          "type": "string"
        }
      ],
      "name": "verifyLog",
      "outputs": [
        {
          "internalType": "bool",
          "name": "",
          "type": "bool"
        }
      ],
      "stateMutability": "view",
      "type": "function"
    }
  ],
  "bytecode": "0x608060405234801561001057600080fd5b50610ad6806100206000396000f3fe608060405234801561001057600080fd5b50600436106100415760003560e01c8063369c487b146100465780634948295b14610077578063ea437a4d14610093575b600080fd5b610060600480360381019061005b9190610445565b6100c3565b60405161006e929190610526565b60405180910390f35b610091600480360381019061008c9190610556565b61019e565b005b6100ad60048036038101906100a89190610556565b6102a2565b6040516100ba91906105e9565b60405180910390f35b6060600080836040516100d69190610640565b90815260200160405180910390206000016000846040516100f79190610640565b90815260200160405180910390206001015481805461011590610686565b80601f016020809104026020016040519081016040528092919081815260200182805461014190610686565b801561018e5780601f106101635761010080835404028352916020019161018e565b820191906000526020600020905b81548152906001019060200180831161017157829003601f168201915b5050505050915091509150915091565b600080836040516101af9190610640565b908152602001604051809103902060000180546101cb90610686565b90501461020d576040517f08c379a000000000000000000000000000000000000000000000000000000000815260040161020490610703565b60405180910390fd5b6040518060400160405280828152602001428152506000836040516102329190610640565b9081526020016040518091039020600082015181600001908161025591906108cf565b50602082015181600101559050507f20687390cea7233af574cd9ff2af9844e99d559ad15e970986b13da5b4e9e771828242604051610296939291906109a1565b60405180910390a15050565b600081805190602001206000846040516102bc9190610640565b90815260200160405180910390206000016040516102da9190610a89565b604051809103902014905092915050565b6000604051905090565b600080fd5b600080fd5b600080fd5b600080fd5b6000601f19601f8301169050919050565b7f4e487b7100000000000000000000000000000000000000000000000000000000600052604160045260246000fd5b61035282610309565b810181811067ffffffffffffffff821117156103715761037061031a565b5b80604052505050565b60006103846102eb565b90506103908282610349565b919050565b600067ffffffffffffffff8211156103b0576103af61031a565b5b6103b982610309565b9050602081019050919050565b82818337600083830152505050565b60006103e86103e384610395565b61037a565b90508281526020810184848401111561040457610403610304565b5b61040f8482856103c6565b509392505050565b600082601f83011261042c5761042b6102ff565b5b813561043c8482602086016103d5565b91505092915050565b60006020828403121561045b5761045a6102f5565b5b600082013567ffffffffffffffff811115610479576104786102fa565b5b61048584828501610417565b91505092915050565b600081519050919050565b600082825260208201905092915050565b60005b838110156104c85780820151818401526020810190506104ad565b60008484015250505050565b60006104df8261048e565b6104e98185610499565b93506104f98185602086016104aa565b61050281610309565b840191505092915050565b6000819050919050565b6105208161050d565b82525050565b6000604082019050818103600083015261054081856104d4565b905061054f6020830184610517565b9392505050565b6000806040838503121561056d5761056c6102f5565b5b600083013567ffffffffffffffff81111561058b5761058a6102fa565b5b61059785828601610417565b925050602083013567ffffffffffffffff8111156105b8576105b76102fa565b5b6105c485828601610417565b9150509250929050565b60008115159050919050565b6105e3816105ce565b82525050565b60006020820190506105fe60008301846105da565b92915050565b600081905092915050565b600061061a8261048e565b6106248185610604565b93506106348185602086016104aa565b80840191505092915050565b600061064c828461060f565b915081905092915050565b7f4e487b7100000000000000000000000000000000000000000000000000000000600052602260045260246000fd5b6000600282049050600182168061069e57607f821691505b6020821081036106b1576106b0610657565b5b50919050565b7f4c6f6720616c7265616479206578697374730000000000000000000000000000600082015250565b60006106ed601283610499565b91506106f8826106b7565b602082019050919050565b6000602082019050818103600083015261071c816106e0565b9050919050565b60008190508160005260206000209050919050565b60006020601f8301049050919050565b600082821b905092915050565b6000600883026107857fffffffffffffffffffffffffffffffffffffffffffffffffffffffffffffffff82610748565b61078f8683610748565b95508019841693508086168417925050509392505050565b6000819050919050565b60006107cc6107c76107c28461050d565b6107a7565b61050d565b9050919050565b6000819050919050565b6107e6836107b1565b6107fa6107f2826107d3565b848454610755565b825550505050565b600090565b61080f610802565b61081a8184846107dd565b505050565b5b8181101561083e57610833600082610807565b600181019050610820565b5050565b601f8211156108835761085481610723565b61085d84610738565b8101602085101561086c578190505b61088061087885610738565b83018261081f565b50505b505050565b600082821c905092915050565b60006108a660001984600802610888565b1980831691505092915050565b60006108bf8383610895565b9150826002028217905092915050565b6108d88261048e565b67ffffffffffffffff8111156108f1576108f061031a565b5b6108fb8254610686565b610906828285610842565b600060209050601f8311600181146109395760008415610927578287015190505b61093185826108b3565b865550610999565b601f19841661094786610723565b60005b8281101561096f5784890151825560018201915060208501945060208101905061094a565b8683101561098c5784890151610988601f891682610895565b8355505b6001600288020188555050505b505050505050565b600060608201905081810360008301526109bb81866104d4565b905081810360208301526109cf81856104d4565b90506109de6040830184610517565b949350505050565b600081905092915050565b60008190508160005260206000209050919050565b60008154610a1381610686565b610a1d81866109e6565b94506001821660008114610a385760018114610a4d57610a80565b60ff1983168652811515820286019350610a80565b610a56856109f1565b60005b83811015610a7857815481890152600182019150602081019050610a59565b838801955050505b50505092915050565b6000610a958284610a06565b91508190509291505056fea26469706673582212206b55e1016ada692e4385b8f7db1ededd8a3ed8973c06b6643272ede702e4735764736f6c63430008140033",
  "linkReferences": {},
  "deployedLinkReferences": {}
}