{
  "_format": "hh-sol-artifact-1",
  "contractName": "LogIntegrity",
  "sourceName": "contracts/LogIntegrity.sol",
  "abi": [
    {
      "anonymous": false,
      "inputs": [
        {
          "indexed": false,
          "internalType": "string",
          "name": "logId",
          "type": "string"
        },
        {
          "indexed": false,
          "internalType": "string",
          "name": "hash",
          "type": "string"
        },
        {
          "indexed": false,
          "internalType": "uint256",
          "name": "timestamp",
          "type": "uint256"
        }
      ],
      "name": "LogStored",
      "type": "event"
    },
    {
      "anonymous": false,
      "inputs": [
        {
          "indexed": false,
          "internalType": "bytes32",
          "name": "root",
          "type": "bytes32"
        },
        {
          "indexed": false,
          "internalType": "uint256",
          "name": "timestamp",
          "type": "uint256"
        }
      ],
      "name": "MerkleRootStored",
      "type": "event"
    },
    {
      "inputs": [
        {
          "internalType": "string",
          "name": "logId",
          "type": "string"
        }
      ],
      "name": "getLog",
      "outputs": [
        {
          "internalType": "string",
          "name": "",
          "type": "string"
        },
        {
          "internalType": "uint256",
          "name": "",
          "type": "uint256"
        }
      ],
      "stateMutability": "view",
      "type": "function"
    },
    {
      "inputs": [],
      "name": "getMerkleRootCount",
      "outputs": [
        {
          "internalType": "uint256",
          "name": "",
          "type": "uint256"
        }
      ],
      "stateMutability": "view",
      "type": "function"
    },
    {
      "inputs": [],
      "name": "getMerkleRoots",
      "outputs": [
        {
          "internalType": "bytes32[]",
          "name": "",
          "type": "bytes32[]"
        }
      ],
      "stateMutability": "view",
      "type": "function"
    },
    {
      "inputs": [
        {
          "internalType": "string",
          "name": "logId",
          "type": "string"
        },
        {
          "internalType": "string",
          "name": "hash",
          "type": "string"
        }
      ],
      "name": "storeLog",
      "outputs": [],
      "stateMutability": "nonpayable",
      "type": "function"
    },
    {
      "inputs": [
        {
          "internalType": "bytes32",
          "name": "root",
          "type": "bytes32"
        }
      ],
      "name": "storeMerkleRoot",
      "outputs": [],
      "stateMutability": "nonpayable",
      "type": "function"
    },
    {
      "inputs": [
        {
          "internalType": "string",
          "name": "logId",
          "type": "string"
        },
        {
          "internalType": "string",
          "name": "hash",
          "type": "string"
        }
      ],
      "name": "verifyLog",
      "outputs": [
        {
          "internalType": "bool",
          "name": "",
          "type": "bool"
        }
      ],
      "stateMutability": "view",
      "type": "function"
    }
  ],
  "bytecode": "0x608060405234801561001057600080fd5b50610daf806100206000396000f3fe608060405234801561001057600080fd5b50600436106100625760003560e01c8063369c487b146100675780634948295b14610098578063665267a0146100b45780636fb0c83a146100d057806385135a1a146100ee578063ea437a4d1461010c575b600080fd5b610081600480360381019061007c9190610588565b61013c565b60405161008f929190610669565b60405180910390f35b6100b260048036038101906100ad9190610699565b610217565b005b6100ce60048036038101906100c99190610747565b61031b565b005b6100d8610380565b6040516100e59190610774565b60405180910390f35b6100f661038d565b604051610103919061084d565b60405180910390f35b61012660048036038101906101219190610699565b6103e5565b604051610133919061088a565b60405180910390f35b60606000808360405161014f91906108e1565b908152602001604051809103902060000160008460405161017091906108e1565b90815260200160405180910390206001015481805461018e90610927565b80601f01602080910402602001604051908101604052809291908181526020018280546101ba90610927565b80156102075780601f106101dc57610100808354040283529160200191610207565b820191906000526020600020905b8154815290600101906020018083116101ea57829003601f168201915b5050505050915091509150915091565b6000808360405161022891906108e1565b9081526020016040518091039020600001805461024490610927565b905014610286576040517f08c379a000000000000000000000000000000000000000000000000000000000815260040161027d906109a4565b60405180910390fd5b6040518060400160405280828152602001428152506000836040516102ab91906108e1565b908152602001604051809103902060008201518160000190816102ce9190610b70565b50602082015181600101559050507f20687390cea7233af574cd9ff2af9844e99d559ad15e970986b13da5b4e9e77182824260405161030f93929190610c42565b60405180910390a15050565b60018190806001815401808255809150506001900390600052602060002001600090919091909150557fd6e1958ac097c49b42560175e3170586ebaa54f0e7bbb8a20ecfc8ed6c1d61248142604051610375929190610c96565b60405180910390a150565b6000600180549050905090565b606060018054806020026020016040519081016040528092919081815260200182805480156103db57602002820191906000526020600020905b8154815260200190600101908083116103c7575b5050505050905090565b600081805190602001206000846040516103ff91906108e1565b908152602001604051809103902060000160405161041d9190610d62565b604051809103902014905092915050565b6000604051905090565b600080fd5b600080fd5b600080fd5b600080fd5b6000601f19601f8301169050919050565b7f4e487b7100000000000000000000000000000000000000000000000000000000600052604160045260246000fd5b6104958261044c565b810181811067ffffffffffffffff821117156104b4576104b361045d565b5b80604052505050565b60006104c761042e565b90506104d3828261048c565b919050565b600067ffffffffffffffff8211156104f3576104f261045d565b5b6104fc8261044c565b9050602081019050919050565b82818337600083830152505050565b600061052b610526846104d8565b6104bd565b90508281526020810184848401111561054757610546610447565b5b610552848285610509565b509392505050565b600082601f83011261056f5761056e610442565b5b813561057f848260208601610518565b91505092915050565b60006020828403121561059e5761059d610438565b5b600082013567ffffffffffffffff8111156105bc576105bb61043d565b5b6105c88482850161055a565b91505092915050565b600081519050919050565b600082825260208201905092915050565b60005b8381101561060b5780820151818401526020810190506105f0565b60008484015250505050565b6000610622826105d1565b61062c81856105dc565b935061063c8185602086016105ed565b6106458161044c565b840191505092915050565b6000819050919050565b61066381610650565b82525050565b600060408201905081810360008301526106838185610617565b9050610692602083018461065a565b9392505050565b600080604083850312156106b0576106af610438565b5b600083013567ffffffffffffffff8111156106ce576106cd61043d565b5b6106da8582860161055a565b925050602083013567ffffffffffffffff8111156106fb576106fa61043d565b5b6107078582860161055a565b9150509250929050565b6000819050919050565b61072481610711565b811461072f57600080fd5b50565b6000813590506107418161071b565b92915050565b60006020828403121561075d5761075c610438565b5b600061076b84828501610732565b91505092915050565b6000602082019050610789600083018461065a565b92915050565b600081519050919050565b600082825260208201905092915050565b6000819050602082019050919050565b6107c481610711565b82525050565b60006107d683836107bb565b60208301905092915050565b6000602082019050919050565b60006107fa8261078f565b610804818561079a565b935061080f836107ab565b8060005b8381101561084057815161082788826107ca565b9750610832836107e2565b925050600181019050610813565b5085935050505092915050565b6000602082019050818103600083015261086781846107ef565b905092915050565b60008115159050919050565b6108848161086f565b82525050565b600060208201905061089f600083018461087b565b92915050565b600081905092915050565b60006108bb826105d1565b6108c581856108a5565b93506108d58185602086016105ed565b80840191505092915050565b60006108ed82846108b0565b915081905092915050565b7f4e487b7100000000000000000000000000000000000000000000000000000000600052602260045260246000fd5b6000600282049050600182168061093f57607f821691505b602082108103610952576109516108f8565b5b50919050565b7f4c6f6720616c7265616479206578697374730000000000000000000000000000600082015250565b600061098e6012836105dc565b915061099982610958565b602082019050919050565b600060208201905081810360008301526109bd81610981565b9050919050565b60008190508160005260206000209050919050565b60006020601f8301049050919050565b600082821b905092915050565b600060088302610a267fffffffffffffffffffffffffffffffffffffffffffffffffffffffffffffffff826109e9565b610a3086836109e9565b95508019841693508086168417925050509392505050565b6000819050919050565b6000610a6d610a68610a6384610650565b610a48565b610650565b9050919050565b6000819050919050565b610a8783610a52565b610a9b610a9382610a74565b8484546109f6565b825550505050565b600090565b610ab0610aa3565b610abb818484610a7e565b505050565b5b81811015610adf57610ad4600082610aa8565b600181019050610ac1565b5050565b601f821115610b2457610af5816109c4565b610afe846109d9565b81016020851015610b0d578190505b610b21610b19856109d9565b830182610ac0565b50505b505050565b600082821c905092915050565b6000610b4760001984600802610b29565b1980831691505092915050565b6000610b608383610b36565b9150826002028217905092915050565b610b79826105d1565b67ffffffffffffffff811115610b9257610b9161045d565b5b610b9c8254610927565b610ba7828285610ae3565b600060209050601f831160018114610bda5760008415610bc8578287015190505b610bd28582610b54565b865550610c3a565b601f198416610be8866109c4565b60005b82811015610c1057848901518255600182019150602085019450602081019050610beb565b86831015610c2d5784890151610c29601f891682610b36565b8355505b6001600288020188555050505b505050505050565b60006060820190508181036000830152610c5c8186610617565b90508181036020830152610c708185610617565b9050610c7f604083018461065a565b949350505050565b610c9081610711565b82525050565b6000604082019050610cab6000830185610c87565b610cb8602083018461065a565b9392505050565b600081905092915050565b60008190508160005260206000209050919050565b60008154610cec81610927565b610cf68186610cbf565b94506001821660008114610d115760018114610d2657610d59565b60ff1983168652811515820286019350610d59565b610d2f85610cca565b60005b83811015610d5157815481890152600182019150602081019050610d32565b838801955050505b50505092915050565b6000610d6e8284610cdf565b91508190509291505056fea264697066735822122097ae111e5c59195f3d8305ad6fea1c5c83e55e741da262864cdc2303c37460ce64736f6c63430008140033",
  "linkReferences": {},
  "deployedLinkReferences": {}
}