{"contracts/LogIntegrity.sol":{"LogIntegrity":{"abi":[{"anonymous":false,"inputs":[{"indexed":false,"internalType":"string","name":"logId","type":"string"},{"indexed":false,"internalType":"string","name":"hash","type":"string"},{"indexed":false,"internalType":"uint256","name":"timestamp","type":"uint256"}],"name":"LogStored","type":"event"},{"inputs":[{"internalType":"string","name":"logId","type":"string"}],"name":"getLog","outputs":[{"internalType":"string","name":"","type":"string"},{"internalType":"uint256","name":"","type":"uint256"}],"stateMutability":"view","type":"function"},{"inputs":[{"internalType":"string","name":"logId","type":"string"},{"internalType":"string","name":"hash","type":"string"}],"name":"storeLog","outputs":[],"stateMutability":"nonpayable","type":"function"},{"inputs":[{"internalType":"string","name":"logId","type":"string"},{"internalType":"string","name":"hash","type":"string"}],"name":"verifyLog","outputs":[{"internalType":"bool","name":"","type":"bool"}],"stateMutability":"view","type":"function"}],"evm":{"bytecode":{"linkReferences":{},"object":"608060405234801561001057600080fd5b50610ad6806100206000396000f3fe608060405234801561001057600080fd5b50600436106100415760003560e01c8063369c487b146100465780634948295b14610077578063ea437a4d14610093575b600080fd5b610060600480360381019061005b9190610445565b6100c3565b60405161006e929190610526565b60405180910390f35b610091600480360381019061008c9190610556565b61019e565b005b6100ad60048036038101906100a89190610556565b6102a2565b6040516100ba91906105e9565b60405180910390f35b6060600080836040516100d69190610640565b90815260200160405180910390206000016000846040516100f79190610640565b90815260200160405180910390206001015481805461011590610686565b80601f016020809104026020016040519081016040528092919081815260200182805461014190610686565b801561018e5780601f106101635761010080835404028352916020019161018e565b820191906000526020600020905b81548152906001019060200180831161017157829003601f168201915b5050505050915091509150915091565b600080836040516101af9190610640565b908152602001604051809103902060000180546101cb90610686565b90501461020d576040517f08c379a000000000000000000000000000000000000000000000000000000000815260040161020490610703565b60405180910390fd5b6040518060400160405280828152602001428152506000836040516102329190610640565b9081526020016040518091039020600082015181600001908161025591906108cf565b50602082015181600101559050507f20687390cea7233af574cd9ff2af9844e99d559ad15e970986b13da5b4e9e771828242604051610296939291906109a1565b60405180910390a15050565b600081805190602001206000846040516102bc9190610640565b90815260200160405180910390206000016040516102da9190610a89565b604051809103902014905092915050565b6000604051905090565b600080fd5b600080fd5b600080fd5b600080fd5b6000601f19601f8301169050919050565b7f4e487b7100000000000000000000000000000000000000000000000000000000600052604160045260246000fd5b61035282610309565b810181811067ffffffffffffffff821117156103715761037061031a565b5b80604052505050565b60006103846102eb565b90506103908282610349565b919050565b600067ffffffffffffffff8211156103b0576103af61031a565b5b6103b982610309565b9050602081019050919050565b82818337600083830152505050565b60006103e86103e384610395565b61037a565b90508281526020810184848401111561040457610403610304565b5b61040f8482856103c6565b509392505050565b600082601f83011261042c5761042b6102ff565b5b813561043c8482602086016103d5565b91505092915050565b60006020828403121561045b5761045a6102f5565b5b600082013567ffffffffffffffff811115610479576104786102fa565b5b61048584828501610417565b91505092915050565b600081519050919050565b600082825260208201905092915050565b60005b838110156104c85780820151818401526020810190506104ad565b60008484015250505050565b60006104df8261048e565b6104e98185610499565b93506104f98185602086016104aa565b61050281610309565b840191505092915050565b6000819050919050565b6105208161050d565b82525050565b6000604082019050818103600083015261054081856104d4565b905061054f6020830184610517565b9392505050565b6000806040838503121561056d5761056c6102f5565b5b600083013567ffffffffffffffff81111561058b5761058a6102fa565b5b61059785828601610417565b925050602083013567ffffffffffffffff8111156105b8576105b76102fa565b5b6105c485828601610417565b9150509250929050565b60008115159050919050565b6105e3816105ce565b82525050565b60006020820190506105fe60008301846105da565b92915050565b600081905092915050565b600061061a8261048e565b6106248185610604565b93506106348185602086016104aa565b80840191505092915050565b600061064c828461060f565b915081905092915050565b7f4e487b7100000000000000000000000000000000000000000000000000000000600052602260045260246000fd5b6000600282049050600182168061069e57607f821691505b6020821081036106b1576106b0610657565b5b50919050565b7f4c6f6720616c7265616479206578697374730000000000000000000000000000600082015250565b60006106ed601283610499565b91506106f8826106b7565b602082019050919050565b6000602082019050818103600083015261071c816106e0565b9050919050565b60008190508160005260206000209050919050565b60006020601f8301049050919050565b600082821b905092915050565b6000600883026107857fffffffffffffffffffffffffffffffffffffffffffffffffffffffffffffffff82610748565b61078f8683610748565b95508019841693508086168417925050509392505050565b6000819050919050565b60006107cc6107c76107c28461050d565b6107a7565b61050d565b9050919050565b6000819050919050565b6107e6836107b1565b6107fa6107f2826107d3565b848454610755565b825550505050565b600090565b61080f610802565b61081a8184846107dd565b505050565b5b8181101561083e57610833600082610807565b600181019050610820565b5050565b601f8211156108835761085481610723565b61085d84610738565b8101602085101561086c578190505b61088061087885610738565b83018261081f565b50505b505050565b600082821c905092915050565b60006108a660001984600802610888565b1980831691505092915050565b60006108bf8383610895565b9150826002028217905092915050565b6108d88261048e565b67ffffffffffffffff8111156108f1576108f061031a565b5b6108fb8254610686565b610906828285610842565b600060209050601f8311600181146109395760008415610927578287015190505b61093185826108b3565b865550610999565b601f19841661094786610723565b60005b8281101561096f5784890151825560018201915060208501945060208101905061094a565b8683101561098c5784890151610988601f891682610895565b8355505b6001600288020188555050505b505050505050565b600060608201905081810360008301526109bb81866104d4565b905081810360208301526109cf81856104d4565b90506109de6040830184610517565b949350505050565b600081905092915050565b60008190508160005260206000209050919050565b60008154610a1381610686565b610a1d81866109e6565b94506001821660008114610a385760018114610a4d57610a80565b60ff1983168652811515820286019350610a80565b610a56856109f1565b60005b83811015610a7857815481890152600182019150602081019050610a59565b838801955050505b50505092915050565b6000610a958284610a06565b91508190509291505056fea26469706673582212206b55e1016ada692e4385b8f7db1ededd8a3ed8973c06b6643272ede702e4735764736f6c63430008140033","opcodes":"PUSH1 0x80 PUSH1 0x40 MSTORE CALLVALUE DUP1 ISZERO PUSH2 0x10 JUMPI PUSH1 0x0 DUP1 REVERT JUMPDEST POP PUSH2 0xAD6 DUP1 PUSH2 0x20 PUSH1 0x0 CODECOPY PUSH1 0x0 RETURN INVALID PUSH1 0x80 PUSH1 0x40 MSTORE CALLVALUE DUP1 ISZERO PUSH2 0x10 JUMPI PUSH1 0x0 DUP1 REVERT JUMPDEST POP PUSH1 0x4 CALLDATASIZE LT PUSH2 0x41 JUMPI PUSH1 0x0 CALLDATALOAD PUSH1 0xE0 SHR DUP1 PUSH4 0x369C487B EQ PUSH2 0x46 JUMPI DUP1 PUSH4 0x4948295B EQ PUSH2 0x77 JUMPI DUP1 PUSH4 0xEA437A4D EQ PUSH2 0x93 JUMPI JUMPDEST PUSH1 0x0 DUP1 REVERT JUMPDEST PUSH2 0x60 PUSH1 0x4 DUP1 CALLDATASIZE SUB DUP2 ADD SWAP1 PUSH2 0x5B SWAP2 SWAP1 PUSH2 0x445 JUMP JUMPDEST PUSH2 0xC3 JUMP JUMPDEST PUSH1 0x40 MLOAD PUSH2 0x6E SWAP3 SWAP2 SWAP1 PUSH2 0x526 JUMP JUMPDEST PUSH1 0x40 MLOAD DUP1 SWAP2 SUB SWAP1 RETURN JUMPDEST PUSH2 0x91 PUSH1 0x4 DUP1 CALLDATASIZE SUB DUP2 ADD SWAP1 PUSH2 0x8C SWAP2 SWAP1 PUSH2 0x556 JUMP JUMPDEST PUSH2 0x19E JUMP JUMPDEST STOP JUMPDEST PUSH2 0xAD PUSH1 0x4 DUP1 CALLDATASIZE SUB DUP2 ADD SWAP1 PUSH2 0xA8 SWAP2 SWAP1 PUSH2 0x556 JUMP JUMPDEST PUSH2 0x2A2 JUMP JUMPDEST PUSH1 0x40 MLOAD PUSH2 0xBA SWAP2 SWAP1 PUSH2 0x5E9 JUMP JUMPDEST PUSH1 0x40 MLOAD DUP1 SWAP2 SUB SWAP1 RETURN JUMPDEST PUSH1 0x60 PUSH1 0x0 DUP1 DUP4 PUSH1 0x40 MLOAD PUSH2 0xD6 SWAP2 SWAP1 PUSH2 0x640 JUMP JUMPDEST SWAP1 DUP2 MSTORE PUSH1 0x20 ADD PUSH1 0x40 MLOAD DUP1 SWAP2 SUB SWAP1 KECCAK256 PUSH1 0x0 ADD PUSH1 0x0 DUP5 PUSH1 0x40 MLOAD PUSH2 0xF7 SWAP2 SWAP1 PUSH2 0x640 JUMP JUMPDEST SWAP1 DUP2 MSTORE PUSH1 0x20 ADD PUSH1 0x40 MLOAD DUP1 SWAP2 SUB SWAP1 KECCAK256 PUSH1 0x1 ADD SLOAD DUP2 DUP1 SLOAD PUSH2 0x115 SWAP1 PUSH2 0x686 JUMP JUMPDEST DUP1 PUSH1 0x1F ADD PUSH1 0x20 DUP1 SWAP2 DIV MUL PUSH1 0x20 ADD PUSH1 0x40 MLOAD SWAP1 DUP2 ADD PUSH1 0x40 MSTORE DUP1 SWAP3 SWAP2 SWAP1 DUP2 DUP2 MSTORE PUSH1 0x20 ADD DUP3 DUP1 SLOAD PUSH2 0x141 SWAP1 PUSH2 0x686 JUMP JUMPDEST DUP1 ISZERO PUSH2 0x18E JUMPI DUP1 PUSH1 0x1F LT PUSH2 0x163 JUMPI PUSH2 0x100 DUP1 DUP4 SLOAD DIV MUL DUP4 MSTORE SWAP2 PUSH1 0x20 ADD SWAP2 PUSH2 0x18E JUMP JUMPDEST DUP3 ADD SWAP2 SWAP1 PUSH1 0x0 MSTORE PUSH1 0x20 PUSH1 0x0 KECCAK256 SWAP1 JUMPDEST DUP2 SLOAD DUP2 MSTORE SWAP1 PUSH1 0x1 ADD SWAP1 PUSH1 0x20 ADD DUP1 DUP4 GT PUSH2 0x171 JUMPI DUP3 SWAP1 SUB PUSH1 0x1F AND DUP3 ADD SWAP2 JUMPDEST POP POP POP POP POP SWAP2 POP SWAP2 POP SWAP2 POP SWAP2 POP SWAP2 JUMP JUMPDEST PUSH1 0x0 DUP1 DUP4 PUSH1 0x40 MLOAD PUSH2 0x1AF SWAP2 SWAP1 PUSH2 0x640 JUMP JUMPDEST SWAP1 DUP2 MSTORE PUSH1 0x20 ADD PUSH1 0x40 MLOAD DUP1 SWAP2 SUB SWAP1 KECCAK256 PUSH1 0x0 ADD DUP1 SLOAD PUSH2 0x1CB SWAP1 PUSH2 0x686 JUMP JUMPDEST SWAP1 POP EQ PUSH2 0x20D JUMPI PUSH1 0x40 MLOAD PUSH32 0x8C379A000000000000000000000000000000000000000000000000000000000 DUP2 MSTORE PUSH1 0x4 ADD PUSH2 0x204 SWAP1 PUSH2 0x703 JUMP JUMPDEST PUSH1 0x40 MLOAD DUP1 SWAP2 SUB SWAP1 REVERT JUMPDEST PUSH1 0x40 MLOAD DUP1 PUSH1 0x40 ADD PUSH1 0x40 MSTORE DUP1 DUP3 DUP2 MSTORE PUSH1 0x20 ADD TIMESTAMP DUP2 MSTORE POP PUSH1 0x0 DUP4 PUSH1 0x40 MLOAD PUSH2 0x232 SWAP2 SWAP1 PUSH2 0x640 JUMP JUMPDEST SWAP1 DUP2 MSTORE PUSH1 0x20 ADD PUSH1 0x40 MLOAD DUP1 SWAP2 SUB SWAP1 KECCAK256 PUSH1 0x0 DUP3 ADD MLOAD DUP2 PUSH1 0x0 ADD SWAP1 DUP2 PUSH2 0x255 SWAP2 SWAP1 PUSH2 0x8CF JUMP JUMPDEST POP PUSH1 0x20 DUP3 ADD MLOAD DUP2 PUSH1 0x1 ADD SSTORE SWAP1 POP POP PUSH32 0x20687390CEA7233AF574CD9FF2AF9844E99D559AD15E970986B13DA5B4E9E771 DUP3 DUP3 TIMESTAMP PUSH1 0x40 MLOAD PUSH2 0x296 SWAP4 SWAP3 SWAP2 SWAP1 PUSH2 0x9A1 JUMP JUMPDEST PUSH1 0x40 MLOAD DUP1 SWAP2 SUB SWAP1 LOG1 POP POP JUMP JUMPDEST PUSH1 0x0 DUP2 DUP1 MLOAD SWAP1 PUSH1 0x20 ADD KECCAK256 PUSH1 0x0 DUP5 PUSH1 0x40 MLOAD PUSH2 0x2BC SWAP2 SWAP1 PUSH2 0x640 JUMP JUMPDEST SWAP1 DUP2 MSTORE PUSH1 0x20 ADD PUSH1 0x40 MLOAD DUP1 SWAP2 SUB SWAP1 KECCAK256 PUSH1 0x0 ADD PUSH1 0x40 MLOAD PUSH2 0x2DA SWAP2 SWAP1 PUSH2 0xA89 JUMP JUMPDEST PUSH1 0x40 MLOAD DUP1 SWAP2 SUB SWAP1 KECCAK256 EQ SWAP1 POP SWAP3 SWAP2 POP POP JUMP JUMPDEST PUSH1 0x0 PUSH1 0x40 MLOAD SWAP1 POP SWAP1 JUMP JUMPDEST PUSH1 0x0 DUP1 REVERT JUMPDEST PUSH1 0x0 DUP1 REVERT JUMPDEST PUSH1 0x0 DUP1 REVERT JUMPDEST PUSH1 0x0 DUP1 REVERT JUMPDEST PUSH1 0x0 PUSH1 0x1F NOT PUSH1 0x1F DUP4 ADD AND SWAP1 POP SWAP2 SWAP1 POP JUMP JUMPDEST PUSH32 0x4E487B7100000000000000000000000000000000000000000000000000000000 PUSH1 0x0 MSTORE PUSH1 0x41 PUSH1 0x4 MSTORE PUSH1 0x24 PUSH1 0x0 REVERT JUMPDEST PUSH2 0x352 DUP3 PUSH2 0x309 JUMP JUMPDEST DUP2 ADD DUP2 DUP2 LT PUSH8 0xFFFFFFFFFFFFFFFF DUP3 GT OR ISZERO PUSH2 0x371 JUMPI PUSH2 0x370 PUSH2 0x31A JUMP JUMPDEST JUMPDEST DUP1 PUSH1 0x40 MSTORE POP POP POP JUMP JUMPDEST PUSH1 0x0 PUSH2 0x384 PUSH2 0x2EB JUMP JUMPDEST SWAP1 POP PUSH2 0x390 DUP3 DUP3 PUSH2 0x349 JUMP JUMPDEST SWAP2 SWAP1 POP JUMP JUMPDEST PUSH1 0x0 PUSH8 0xFFFFFFFFFFFFFFFF DUP3 GT ISZERO PUSH2 0x3B0 JUMPI PUSH2 0x3AF PUSH2 0x31A JUMP JUMPDEST JUMPDEST PUSH2 0x3B9 DUP3 PUSH2 0x309 JUMP JUMPDEST SWAP1 POP PUSH1 0x20 DUP2 ADD SWAP1 POP SWAP2 SWAP1 POP JUMP JUMPDEST DUP3 DUP2 DUP4 CALLDATACOPY PUSH1 0x0 DUP4 DUP4 ADD MSTORE POP POP POP JUMP JUMPDEST PUSH1 0x0 PUSH2 0x3E8 PUSH2 0x3E3 DUP5 PUSH2 0x395 JUMP JUMPDEST PUSH2 0x37A JUMP JUMPDEST SWAP1 POP DUP3 DUP2 MSTORE PUSH1 0x20 DUP2 ADD DUP5 DUP5 DUP5 ADD GT ISZERO PUSH2 0x404 JUMPI PUSH2 0x403 PUSH2 0x304 JUMP JUMPDEST JUMPDEST PUSH2 0x40F DUP5 DUP3 DUP6 PUSH2 0x3C6 JUMP JUMPDEST POP SWAP4 SWAP3 POP POP POP JUMP JUMPDEST PUSH1 0x0 DUP3 PUSH1 0x1F DUP4 ADD SLT PUSH2 0x42C JUMPI PUSH2 0x42B PUSH2 0x2FF JUMP JUMPDEST JUMPDEST DUP2 CALLDATALOAD PUSH2 0x43C DUP5 DUP3 PUSH1 0x20 DUP7 ADD PUSH2 0x3D5 JUMP JUMPDEST SWAP2 POP POP SWAP3 SWAP2 POP POP JUMP JUMPDEST PUSH1 0x0 PUSH1 0x20 DUP3 DUP5 SUB SLT ISZERO PUSH2 0x45B JUMPI PUSH2 0x45A PUSH2 0x2F5 JUMP JUMPDEST JUMPDEST PUSH1 0x0 DUP3 ADD CALLDATALOAD PUSH8 0xFFFFFFFFFFFFFFFF DUP2 GT ISZERO PUSH2 0x479 JUMPI PUSH2 0x478 PUSH2 0x2FA JUMP JUMPDEST JUMPDEST PUSH2 0x485 DUP5 DUP3 DUP6 ADD PUSH2 0x417 JUMP JUMPDEST SWAP2 POP POP SWAP3 SWAP2 POP POP JUMP JUMPDEST PUSH1 0x0 DUP2 MLOAD SWAP1 POP SWAP2 SWAP1 POP JUMP JUMPDEST PUSH1 0x0 DUP3 DUP3 MSTORE PUSH1 0x20 DUP3 ADD SWAP1 POP SWAP3 SWAP2 POP POP JUMP JUMPDEST PUSH1 0x0 JUMPDEST DUP4 DUP2 LT ISZERO PUSH2 0x4C8 JUMPI DUP1 DUP3 ADD MLOAD DUP2 DUP5 ADD MSTORE PUSH1 0x20 DUP2 ADD SWAP1 POP PUSH2 0x4AD JUMP JUMPDEST PUSH1 0x0 DUP5 DUP5 ADD MSTORE POP POP POP POP JUMP JUMPDEST PUSH1 0x0 PUSH2 0x4DF DUP3 PUSH2 0x48E JUMP JUMPDEST PUSH2 0x4E9 DUP2 DUP6 PUSH2 0x499 JUMP JUMPDEST SWAP4 POP PUSH2 0x4F9 DUP2 DUP6 PUSH1 0x20 DUP7 ADD PUSH2 0x4AA JUMP JUMPDEST PUSH2 0x502 DUP2 PUSH2 0x309 JUMP JUMPDEST DUP5 ADD SWAP2 POP POP SWAP3 SWAP2 POP POP JUMP JUMPDEST PUSH1 0x0 DUP2 SWAP1 POP SWAP2 SWAP1 POP JUMP JUMPDEST PUSH2 0x520 DUP2 PUSH2 0x50D JUMP JUMPDEST DUP3 MSTORE POP POP JUMP JUMPDEST PUSH1 0x0 PUSH1 0x40 DUP3 ADD SWAP1 POP DUP2 DUP2 SUB PUSH1 0x0 DUP4 ADD MSTORE PUSH2 0x540 DUP2 DUP6 PUSH2 0x4D4 JUMP JUMPDEST SWAP1 POP PUSH2 0x54F PUSH1 0x20 DUP4 ADD DUP5 PUSH2 0x517 JUMP JUMPDEST SWAP4 SWAP3 POP POP POP JUMP JUMPDEST PUSH1 0x0 DUP1 PUSH1 0x40 DUP4 DUP6 SUB SLT ISZERO PUSH2 0x56D JUMPI PUSH2 0x56C PUSH2 0x2F5 JUMP JUMPDEST JUMPDEST PUSH1 0x0 DUP4 ADD CALLDATALOAD PUSH8 0xFFFFFFFFFFFFFFFF DUP2 GT ISZERO PUSH2 0x58B JUMPI PUSH2 0x58A PUSH2 0x2FA JUMP JUMPDEST JUMPDEST PUSH2 0x597 DUP6 DUP3 DUP7 ADD PUSH2 0x417 JUMP JUMPDEST SWAP3 POP POP PUSH1 0x20 DUP4 ADD CALLDATALOAD PUSH8 0xFFFFFFFFFFFFFFFF DUP2 GT ISZERO PUSH2 0x5B8 JUMPI PUSH2 0x5B7 PUSH2 0x2FA JUMP JUMPDEST JUMPDEST PUSH2 0x5C4 DUP6 DUP3 DUP7 ADD PUSH2 0x417 JUMP JUMPDEST SWAP2 POP POP SWAP3 POP SWAP3 SWAP1 POP JUMP JUMPDEST PUSH1 0x0 DUP2 ISZERO ISZERO SWAP1 POP SWAP2 SWAP1 POP JUMP JUMPDEST PUSH2 0x5E3 DUP2 PUSH2 0x5CE JUMP JUMPDEST DUP3 MSTORE POP POP JUMP JUMPDEST PUSH1 0x0 PUSH1 0x20 DUP3 ADD SWAP1 POP PUSH2 0x5FE PUSH1 0x0 DUP4 ADD DUP5 PUSH2 0x5DA JUMP JUMPDEST SWAP3 SWAP2 POP POP JUMP JUMPDEST PUSH1 0x0 DUP2 SWAP1 POP SWAP3 SWAP2 POP POP JUMP JUMPDEST PUSH1 0x0 PUSH2 0x61A DUP3 PUSH2 0x48E JUMP JUMPDEST PUSH2 0x624 DUP2 DUP6 PUSH2 0x604 JUMP JUMPDEST SWAP4 POP PUSH2 0x634 DUP2 DUP6 PUSH1 0x20 DUP7 ADD PUSH2 0x4AA JUMP JUMPDEST DUP1 DUP5 ADD SWAP2 POP POP SWAP3 SWAP2 POP POP JUMP JUMPDEST PUSH1 0x0 PUSH2 0x64C DUP3 DUP5 PUSH2 0x60F JUMP JUMPDEST SWAP2 POP DUP2 SWAP1 POP SWAP3 SWAP2 POP POP JUMP JUMPDEST PUSH32 0x4E487B7100000000000000000000000000000000000000000000000000000000 PUSH1 0x0 MSTORE PUSH1 0x22 PUSH1 0x4 MSTORE PUSH1 0x24 PUSH1 0x0 REVERT JUMPDEST PUSH1 0x0 PUSH1 0x2 DUP3 DIV SWAP1 POP PUSH1 0x1 DUP3 AND DUP1 PUSH2 0x69E JUMPI PUSH1 0x7F DUP3 AND SWAP2 POP JUMPDEST PUSH1 0x20 DUP3 LT DUP2 SUB PUSH2 0x6B1 JUMPI PUSH2 0x6B0 PUSH2 0x657 JUMP JUMPDEST JUMPDEST POP SWAP2 SWAP1 POP JUMP JUMPDEST PUSH32 0x4C6F6720616C7265616479206578697374730000000000000000000000000000 PUSH1 0x0 DUP3 ADD MSTORE POP JUMP JUMPDEST PUSH1 0x0 PUSH2 0x6ED PUSH1 0x12 DUP4 PUSH2 0x499 JUMP JUMPDEST SWAP2 POP PUSH2 0x6F8 DUP3 PUSH2 0x6B7 JUMP JUMPDEST PUSH1 0x20 DUP3 ADD SWAP1 POP SWAP2 SWAP1 POP JUMP JUMPDEST PUSH1 0x0 PUSH1 0x20 DUP3 ADD SWAP1 POP DUP2 DUP2 SUB PUSH1 0x0 DUP4 ADD MSTORE PUSH2 0x71C DUP2 PUSH2 0x6E0 JUMP JUMPDEST SWAP1 POP SWAP2 SWAP1 POP JUMP JUMPDEST PUSH1 0x0 DUP2 SWAP1 POP DUP2 PUSH1 0x0 MSTORE PUSH1 0x20 PUSH1 0x0 KECCAK256 SWAP1 POP SWAP2 SWAP1 POP JUMP JUMPDEST PUSH1 0x0 PUSH1 0x20 PUSH1 0x1F DUP4 ADD DIV SWAP1 POP SWAP2 SWAP1 POP JUMP JUMPDEST PUSH1 0x0 DUP3 DUP3 SHL SWAP1 POP SWAP3 SWAP2 POP POP JUMP JUMPDEST PUSH1 0x0 PUSH1 0x8 DUP4 MUL PUSH2 0x785 PUSH32 0xFFFFFFFFFFFFFFFFFFFFFFFFFFFFFFFFFFFFFFFFFFFFFFFFFFFFFFFFFFFFFFFF DUP3 PUSH2 0x748 JUMP JUMPDEST PUSH2 0x78F DUP7 DUP4 PUSH2 0x748 JUMP JUMPDEST SWAP6 POP DUP1 NOT DUP5 AND SWAP4 POP DUP1 DUP7 AND DUP5 OR SWAP3 POP POP POP SWAP4 SWAP3 POP POP POP JUMP JUMPDEST PUSH1 0x0 DUP2 SWAP1 POP SWAP2 SWAP1 POP JUMP JUMPDEST PUSH1 0x0 PUSH2 0x7CC PUSH2 0x7C7 PUSH2 0x7C2 DUP5 PUSH2 0x50D JUMP JUMPDEST PUSH2 0x7A7 JUMP JUMPDEST PUSH2 0x50D JUMP JUMPDEST SWAP1 POP SWAP2 SWAP1 POP JUMP JUMPDEST PUSH1 0x0 DUP2 SWAP1 POP SWAP2 SWAP1 POP JUMP JUMPDEST PUSH2 0x7E6 DUP4 PUSH2 0x7B1 JUMP JUMPDEST PUSH2 0x7FA PUSH2 0x7F2 DUP3 PUSH2 0x7D3 JUMP JUMPDEST DUP5 DUP5 SLOAD PUSH2 0x755 JUMP JUMPDEST DUP3 SSTORE POP POP POP POP JUMP JUMPDEST PUSH1 0x0 SWAP1 JUMP JUMPDEST PUSH2 0x80F PUSH2 0x802 JUMP JUMPDEST PUSH2 0x81A DUP2 DUP5 DUP5 PUSH2 0x7DD JUMP JUMPDEST POP POP POP JUMP JUMPDEST JUMPDEST DUP2 DUP2 LT ISZERO PUSH2 0x83E JUMPI PUSH2 0x833 PUSH1 0x0 DUP3 PUSH2 0x807 JUMP JUMPDEST PUSH1 0x1 DUP2 ADD SWAP1 POP PUSH2 0x820 JUMP JUMPDEST POP POP JUMP JUMPDEST PUSH1 0x1F DUP3 GT ISZERO PUSH2 0x883 JUMPI PUSH2 0x854 DUP2 PUSH2 0x723 JUMP JUMPDEST PUSH2 0x85D DUP5 PUSH2 0x738 JUMP JUMPDEST DUP2 ADD PUSH1 0x20 DUP6 LT ISZERO PUSH2 0x86C JUMPI DUP2 SWAP1 POP JUMPDEST PUSH2 0x880 PUSH2 0x878 DUP6 PUSH2 0x738 JUMP JUMPDEST DUP4 ADD DUP3 PUSH2 0x81F JUMP JUMPDEST POP POP JUMPDEST POP POP POP JUMP JUMPDEST PUSH1 0x0 DUP3 DUP3 SHR SWAP1 POP SWAP3 SWAP2 POP POP JUMP JUMPDEST PUSH1 0x0 PUSH2 0x8A6 PUSH1 0x0 NOT DUP5 PUSH1 0x8 MUL PUSH2 0x888 JUMP JUMPDEST NOT DUP1 DUP4 AND SWAP2 POP POP SWAP3 SWAP2 POP POP JUMP JUMPDEST PUSH1 0x0 PUSH2 0x8BF DUP4 DUP4 PUSH2 0x895 JUMP JUMPDEST SWAP2 POP DUP3 PUSH1 0x2 MUL DUP3 OR SWAP1 POP SWAP3 SWAP2 POP POP JUMP JUMPDEST PUSH2 0x8D8 DUP3 PUSH2 0x48E JUMP JUMPDEST PUSH8 0xFFFFFFFFFFFFFFFF DUP2 GT ISZERO PUSH2 0x8F1 JUMPI PUSH2 0x8F0 PUSH2 0x31A JUMP JUMPDEST JUMPDEST PUSH2 0x8FB DUP3 SLOAD PUSH2 0x686 JUMP JUMPDEST PUSH2 0x906 DUP3 DUP3 DUP6 PUSH2 0x842 JUMP JUMPDEST PUSH1 0x0 PUSH1 0x20 SWAP1 POP PUSH1 0x1F DUP4 GT PUSH1 0x1 DUP2 EQ PUSH2 0x939 JUMPI PUSH1 0x0 DUP5 ISZERO PUSH2 0x927 JUMPI DUP3 DUP8 ADD MLOAD SWAP1 POP JUMPDEST PUSH2 0x931 DUP6 DUP3 PUSH2 0x8B3 JUMP JUMPDEST DUP7 SSTORE POP PUSH2 0x999 JUMP JUMPDEST PUSH1 0x1F NOT DUP5 AND PUSH2 0x947 DUP7 PUSH2 0x723 JUMP JUMPDEST PUSH1 0x0 JUMPDEST DUP3 DUP2 LT ISZERO PUSH2 0x96F JUMPI DUP5 DUP10 ADD MLOAD DUP3 SSTORE PUSH1 0x1 DUP3 ADD SWAP2 POP PUSH1 0x20 DUP6 ADD SWAP5 POP PUSH1 0x20 DUP2 ADD SWAP1 POP PUSH2 0x94A JUMP JUMPDEST DUP7 DUP4 LT ISZERO PUSH2 0x98C JUMPI DUP5 DUP10 ADD MLOAD PUSH2 0x988 PUSH1 0x1F DUP10 AND DUP3 PUSH2 0x895 JUMP JUMPDEST DUP4 SSTORE POP JUMPDEST PUSH1 0x1 PUSH1 0x2 DUP9 MUL ADD DUP9 SSTORE POP POP POP JUMPDEST POP POP POP POP POP POP JUMP JUMPDEST PUSH1 0x0 PUSH1 0x60 DUP3 ADD SWAP1 POP DUP2 DUP2 SUB PUSH1 0x0 DUP4 ADD MSTORE PUSH2 0x9BB DUP2 DUP7 PUSH2 0x4D4 JUMP JUMPDEST SWAP1 POP DUP2 DUP2 SUB PUSH1 0x20 DUP4 ADD MSTORE PUSH2 0x9CF DUP2 DUP6 PUSH2 0x4D4 JUMP JUMPDEST SWAP1 POP PUSH2 0x9DE PUSH1 0x40 DUP4 ADD DUP5 PUSH2 0x517 JUMP JUMPDEST SWAP5 SWAP4 POP POP POP POP JUMP JUMPDEST PUSH1 0x0 DUP2 SWAP1 POP SWAP3 SWAP2 POP POP JUMP JUMPDEST PUSH1 0x0 DUP2 SWAP1 POP DUP2 PUSH1 0x0 MSTORE PUSH1 0x20 PUSH1 0x0 KECCAK256 SWAP1 POP SWAP2 SWAP1 POP JUMP JUMPDEST PUSH1 0x0 DUP2 SLOAD PUSH2 0xA13 DUP2 PUSH2 0x686 JUMP JUMPDEST PUSH2 0xA1D DUP2 DUP7 PUSH2 0x9E6 JUMP JUMPDEST SWAP5 POP PUSH1 0x1 DUP3 AND PUSH1 0x0 DUP2 EQ PUSH2 0xA38 JUMPI PUSH1 0x1 DUP2 EQ PUSH2 0xA4D JUMPI PUSH2 0xA80 JUMP JUMPDEST PUSH1 0xFF NOT DUP4 AND DUP7 MSTORE DUP2 ISZERO ISZERO DUP3 MUL DUP7 ADD SWAP4 POP PUSH2 0xA80 JUMP JUMPDEST PUSH2 0xA56 DUP6 PUSH2 0x9F1 JUMP JUMPDEST PUSH1 0x0 JUMPDEST DUP4 DUP2 LT ISZERO PUSH2 0xA78 JUMPI DUP2 SLOAD DUP2 DUP10 ADD MSTORE PUSH1 0x1 DUP3 ADD SWAP2 POP PUSH1 0x20 DUP2 ADD SWAP1 POP PUSH2 0xA59 JUMP JUMPDEST DUP4 DUP9 ADD SWAP6 POP POP POP JUMPDEST POP POP POP SWAP3 SWAP2 POP POP JUMP JUMPDEST PUSH1 0x0 PUSH2 0xA95 DUP3 DUP5 PUSH2 0xA06 JUMP JUMPDEST SWAP2 POP DUP2 SWAP1 POP SWAP3 SWAP2 POP POP JUMP INVALID LOG2 PUSH5 0x6970667358 0x22 SLT KECCAK256 PUSH12 0x55E1016ADA692E4385B8F7DB 0x1E 0xDE 0xDD DUP11 RETURNDATACOPY 0xD8 SWAP8 EXTCODECOPY MOD 0xB6 PUSH5 0x3272EDE702 0xE4 PUSH20 0x5764736F6C634300081400330000000000000000 "},"methodIdentifiers":{"getLog(string)":"369c487b","storeLog(string,string)":"4948295b","verifyLog(string,string)":"ea437a4d"}}}}}